{
  "contractName": "RealEstate",
  "abi": [
    {
      "constant": true,
      "inputs": [
        {
          "name": "",
          "type": "uint256"
        }
      ],
      "name": "requests",
      "outputs": [
        {
          "name": "status",
          "type": "uint8"
        },
        {
          "name": "propertyId",
          "type": "uint256"
        },
        {
          "name": "applicant",
          "type": "address"
        },
        {
          "name": "requestId",
          "type": "uint256"
        },
        {
          "name": "date",
          "type": "uint256"
        },
        {
          "name": "stayLength",
          "type": "uint256"
        },
        {
          "name": "deposit",
          "type": "uint256"
        },
        {
          "name": "now",
          "type": "uint256"
        },
        {
          "name": "checked",
          "type": "bool"
        }
      ],
      "payable": false,
      "stateMutability": "view",
      "type": "function"
    },
    {
      "constant": true,
      "inputs": [
        {
          "name": "",
          "type": "uint256"
        }
      ],
      "name": "properties",
      "outputs": [
        {
          "name": "id",
          "type": "uint256"
        },
        {
          "name": "title",
          "type": "string"
        },
        {
          "name": "price",
          "type": "uint256"
        },
        {
          "name": "ownerAddress",
          "type": "address"
        },
        {
          "name": "ownerUportAddress",
          "type": "address"
        },
        {
          "name": "rewardAddress",
          "type": "address"
        },
        {
          "name": "leaseLimit",
          "type": "uint256"
        },
        {
          "name": "leasePrice",
          "type": "uint256"
        },
        {
          "name": "onSale",
          "type": "bool"
        }
      ],
      "payable": false,
      "stateMutability": "view",
      "type": "function"
    },
    {
      "anonymous": false,
      "inputs": [
        {
          "indexed": true,
          "name": "_from",
          "type": "address"
        },
        {
          "indexed": false,
          "name": "_propertyId",
          "type": "uint256"
        },
        {
          "indexed": false,
          "name": "_date",
          "type": "uint256"
        },
        {
          "indexed": false,
          "name": "_dateLength",
          "type": "uint256"
        },
        {
          "indexed": false,
          "name": "_requestId",
          "type": "uint256"
        }
      ],
      "name": "ApplyRent",
      "type": "event"
    },
    {
      "anonymous": false,
      "inputs": [
        {
          "indexed": true,
          "name": "_from",
          "type": "address"
        },
        {
          "indexed": false,
          "name": "_propertyId",
          "type": "uint256"
        },
        {
          "indexed": false,
          "name": "_title",
          "type": "string"
        }
      ],
      "name": "AddProperty",
      "type": "event"
    },
    {
      "anonymous": false,
      "inputs": [
        {
          "indexed": true,
          "name": "_applicant",
          "type": "address"
        },
        {
          "indexed": true,
          "name": "_owner",
          "type": "address"
        },
        {
          "indexed": false,
          "name": "_result",
          "type": "bool"
        }
      ],
      "name": "Confirmation",
      "type": "event"
    },
    {
      "constant": false,
      "inputs": [
        {
          "name": "_title",
          "type": "string"
        },
        {
          "name": "_price",
          "type": "uint256"
        },
        {
          "name": "_uportAddress",
          "type": "address"
        }
      ],
      "name": "addProperty",
      "outputs": [],
      "payable": false,
      "stateMutability": "nonpayable",
      "type": "function"
    },
    {
      "constant": false,
      "inputs": [
        {
          "name": "_startDate",
          "type": "uint256"
        },
        {
          "name": "_stayLength",
          "type": "uint256"
        },
        {
          "name": "_propertyId",
          "type": "uint256"
        }
      ],
      "name": "applyRent",
      "outputs": [],
      "payable": true,
      "stateMutability": "payable",
      "type": "function"
    },
    {
      "constant": false,
      "inputs": [
        {
          "name": "_requestId",
          "type": "uint256"
        },
        {
          "name": "_isAccept",
          "type": "bool"
        }
      ],
      "name": "confirmApplication",
      "outputs": [],
      "payable": false,
      "stateMutability": "nonpayable",
      "type": "function"
    },
    {
      "constant": false,
      "inputs": [
        {
          "name": "_requestId",
          "type": "uint256"
        }
      ],
      "name": "refunds",
      "outputs": [],
      "payable": false,
      "stateMutability": "nonpayable",
      "type": "function"
    },
    {
      "constant": false,
      "inputs": [
        {
          "name": "_requestId",
          "type": "uint256"
        }
      ],
      "name": "checkRequest",
      "outputs": [],
      "payable": false,
      "stateMutability": "nonpayable",
      "type": "function"
    },
    {
      "constant": false,
      "inputs": [
        {
          "name": "_requestId",
          "type": "uint256"
        }
      ],
      "name": "withdrawCharge",
      "outputs": [],
      "payable": false,
      "stateMutability": "nonpayable",
      "type": "function"
    },
    {
      "constant": true,
      "inputs": [],
      "name": "userProperties",
      "outputs": [
        {
          "name": "",
          "type": "uint256[]"
        }
      ],
      "payable": false,
      "stateMutability": "view",
      "type": "function"
    },
    {
      "constant": true,
      "inputs": [],
      "name": "userRequest",
      "outputs": [
        {
          "name": "",
          "type": "uint256[]"
        }
      ],
      "payable": false,
      "stateMutability": "view",
      "type": "function"
    },
    {
      "constant": true,
      "inputs": [],
      "name": "propertyLength",
      "outputs": [
        {
          "name": "",
          "type": "uint256"
        }
      ],
      "payable": false,
      "stateMutability": "view",
      "type": "function"
    },
    {
      "constant": true,
      "inputs": [],
      "name": "requestsLength",
      "outputs": [
        {
          "name": "",
          "type": "uint256"
        }
      ],
      "payable": false,
      "stateMutability": "view",
      "type": "function"
    },
    {
      "constant": false,
      "inputs": [
        {
          "name": "_propertyId",
          "type": "uint256"
        },
        {
          "name": "_expireDate",
          "type": "uint256"
        },
        {
          "name": "_price",
          "type": "uint256"
        }
      ],
      "name": "propertyOnSale",
      "outputs": [],
      "payable": false,
      "stateMutability": "nonpayable",
      "type": "function"
    },
    {
      "constant": false,
      "inputs": [
        {
          "name": "_propertyId",
          "type": "uint256"
        }
      ],
      "name": "propertyNotOnSale",
      "outputs": [],
      "payable": false,
      "stateMutability": "nonpayable",
      "type": "function"
    },
    {
      "constant": true,
      "inputs": [],
      "name": "getOnSalePropertyLength",
      "outputs": [
        {
          "name": "",
          "type": "uint256"
        }
      ],
      "payable": false,
      "stateMutability": "view",
      "type": "function"
    },
    {
      "constant": false,
      "inputs": [
        {
          "name": "_propertyId",
          "type": "uint256"
        }
      ],
      "name": "buyRewardAddress",
      "outputs": [],
      "payable": true,
      "stateMutability": "payable",
      "type": "function"
    },
    {
      "constant": true,
      "inputs": [],
      "name": "getOnSalePropertyIds",
      "outputs": [
        {
          "name": "",
          "type": "uint256[]"
        }
      ],
      "payable": false,
      "stateMutability": "view",
      "type": "function"
    },
    {
      "constant": false,
      "inputs": [
        {
          "name": "_propertyId",
          "type": "uint256"
        }
      ],
      "name": "resumeRewardAddress",
      "outputs": [],
      "payable": false,
      "stateMutability": "nonpayable",
      "type": "function"
    }
  ],
  "bytecode": "0x608060405234801561001057600080fd5b50611d4e806100206000396000f3006080604052600436106100fc576000357c0100000000000000000000000000000000000000000000000000000000900463ffffffff16806334be9ffb1461010157806339154c491461013a5780633a0eb9bf146101a657806340c57998146101c6578063601e768f146101f357806365867fd11461021e5780637e9dbf731461025f57806381d12c581461028c578063905300ba14610343578063a2607a9914610370578063aa16c65c1461039d578063b8fe67b7146103d1578063b91541491461043d578063d642e48714610468578063e36bd0f3146104cd578063e730fcc3146104fa578063f7b1080814610566578063ffbbfcb0146106cc575b600080fd5b34801561010d57600080fd5b50610138600480360381019080803590602001909291908035151590602001909291905050506106f7565b005b34801561014657600080fd5b5061014f610993565b6040518080602001828103825283818151815260200191508051906020019060200280838360005b83811015610192578082015181840152602081019050610177565b505050509050019250505060405180910390f35b6101c460048036038101908080359060200190929190505050610a2b565b005b3480156101d257600080fd5b506101f160048036038101908080359060200190929190505050610ad8565b005b3480156101ff57600080fd5b50610208610bab565b6040518082815260200191505060405180910390f35b34801561022a57600080fd5b5061025d600480360381019080803590602001909291908035906020019092919080359060200190929190505050610bb8565b005b34801561026b57600080fd5b5061028a60048036038101908080359060200190929190505050610d51565b005b34801561029857600080fd5b506102b760048036038101908080359060200190929190505050610e26565b604051808a60028111156102c757fe5b60ff1681526020018981526020018873ffffffffffffffffffffffffffffffffffffffff1673ffffffffffffffffffffffffffffffffffffffff16815260200187815260200186815260200185815260200184815260200183815260200182151515158152602001995050505050505050505060405180910390f35b34801561034f57600080fd5b5061036e60048036038101908080359060200190929190505050610ebd565b005b34801561037c57600080fd5b5061039b60048036038101908080359060200190929190505050611006565b005b6103cf600480360381019080803590602001909291908035906020019092919080359060200190929190505050611148565b005b3480156103dd57600080fd5b506103e6611487565b6040518080602001828103825283818151815260200191508051906020019060200280838360005b8381101561042957808201518184015260208101905061040e565b505050509050019250505060405180910390f35b34801561044957600080fd5b506104526114df565b6040518082815260200191505060405180910390f35b34801561047457600080fd5b506104cb60048036038101908080359060200190820180359060200191909192939192939080359060200190929190803573ffffffffffffffffffffffffffffffffffffffff1690602001909291905050506114ec565b005b3480156104d957600080fd5b506104f860048036038101908080359060200190929190505050611813565b005b34801561050657600080fd5b5061050f61190d565b6040518080602001828103825283818151815260200191508051906020019060200280838360005b83811015610552578082015181840152602081019050610537565b505050509050019250505060405180910390f35b34801561057257600080fd5b50610591600480360381019080803590602001909291905050506119a5565b604051808a8152602001806020018981526020018873ffffffffffffffffffffffffffffffffffffffff1673ffffffffffffffffffffffffffffffffffffffff1681526020018773ffffffffffffffffffffffffffffffffffffffff1673ffffffffffffffffffffffffffffffffffffffff1681526020018673ffffffffffffffffffffffffffffffffffffffff1673ffffffffffffffffffffffffffffffffffffffff1681526020018581526020018481526020018315151515815260200182810382528a818151815260200191508051906020019080838360005b8381101561068957808201518184015260208101905061066e565b50505050905090810190601f1680156106b65780820380516001836020036101000a031916815260200191505b509a505050505050505050505060405180910390f35b3480156106d857600080fd5b506106e1611b07565b6040518082815260200191505060405180910390f35b60008060008060058681548110151561070c57fe5b906000526020600020906009020193506004846001015481548110151561072f57fe5b90600052602060002090600a020192503373ffffffffffffffffffffffffffffffffffffffff168360030160009054906101000a900473ffffffffffffffffffffffffffffffffffffffff1673ffffffffffffffffffffffffffffffffffffffff161480156107c55750600060028111156107a657fe5b8460000160009054906101000a900460ff1660028111156107c357fe5b145b15156107d057600080fd5b84156108755760018460000160006101000a81548160ff021916908360028111156107f757fe5b0217905550600091505b8360050154821015610870576000808560010154815260200190815260200160002061083a838660040154611b1490919063ffffffff16565b90806001815401808255809150509060018203906000526020600020016000909192909190915055508180600101925050610801565b6108fe565b60028460000160006101000a81548160ff0219169083600281111561089657fe5b0217905550600090505b83600501548110156108fd5760008360080160006108cb848860040154611b1490919063ffffffff16565b815260200190815260200160002060006101000a81548160ff02191690831515021790555080806001019150506108a0565b5b3373ffffffffffffffffffffffffffffffffffffffff168460020160009054906101000a900473ffffffffffffffffffffffffffffffffffffffff1673ffffffffffffffffffffffffffffffffffffffff167f6fc8773d34ce082bf3b9fd10c376fae1448e6756e819779c99efb7806ea19dab87604051808215151515815260200191505060405180910390a3505050505050565b6060600360003373ffffffffffffffffffffffffffffffffffffffff1673ffffffffffffffffffffffffffffffffffffffff168152602001908152602001600020600101805480602002602001604051908101604052809291908181526020018280548015610a2157602002820191906000526020600020905b815481526020019060010190808311610a0d575b5050505050905090565b6000600482815481101515610a3c57fe5b90600052602060002090600a0201905034816007015411158015610a6e57508060090160009054906101000a900460ff165b1515610a7957600080fd5b806006015442018160060181905550338160050160006101000a81548173ffffffffffffffffffffffffffffffffffffffff021916908373ffffffffffffffffffffffffffffffffffffffff160217905550610ad482611b30565b5050565b6000600582815481101515610ae957fe5b906000526020600020906009020190508060020160009054906101000a900473ffffffffffffffffffffffffffffffffffffffff1673ffffffffffffffffffffffffffffffffffffffff163373ffffffffffffffffffffffffffffffffffffffff16148015610b7f575060016002811115610b6057fe5b8160000160009054906101000a900460ff166002811115610b7d57fe5b145b1515610b8a57600080fd5b60018160080160006101000a81548160ff0219169083151502179055505050565b6000600180549050905090565b600062093a808310151515610bcc57600080fd5b600484815481101515610bdb57fe5b90600052602060002090600a020190503373ffffffffffffffffffffffffffffffffffffffff168160030160009054906101000a900473ffffffffffffffffffffffffffffffffffffffff1673ffffffffffffffffffffffffffffffffffffffff16148015610cbd57508060050160009054906101000a900473ffffffffffffffffffffffffffffffffffffffff1673ffffffffffffffffffffffffffffffffffffffff168160030160009054906101000a900473ffffffffffffffffffffffffffffffffffffffff1673ffffffffffffffffffffffffffffffffffffffff16145b1515610cc857600080fd5b60018160090160006101000a81548160ff021916908315150217905550818160070181905550828160060181905550610d346001808690806001815401808255809150509060018203906000526020600020016000909192909190915055611c3890919063ffffffff16565b600260008681526020019081526020016000208190555050505050565b6000600482815481101515610d6257fe5b90600052602060002090600a020190503373ffffffffffffffffffffffffffffffffffffffff168160030160009054906101000a900473ffffffffffffffffffffffffffffffffffffffff1673ffffffffffffffffffffffffffffffffffffffff16148015610dd45750428160060154105b1515610ddf57600080fd5b338160050160006101000a81548173ffffffffffffffffffffffffffffffffffffffff021916908373ffffffffffffffffffffffffffffffffffffffff1602179055505050565b600581815481101515610e3557fe5b90600052602060002090600902016000915090508060000160009054906101000a900460ff16908060010154908060020160009054906101000a900473ffffffffffffffffffffffffffffffffffffffff16908060030154908060040154908060050154908060060154908060070154908060080160009054906101000a900460ff16905089565b6000806000600484815481101515610ed157fe5b90600052602060002090600a020192508260030160009054906101000a900473ffffffffffffffffffffffffffffffffffffffff1673ffffffffffffffffffffffffffffffffffffffff163373ffffffffffffffffffffffffffffffffffffffff16141515610f3f57600080fd5b610f5760018080549050611c3890919063ffffffff16565b9150600182815481101515610f6857fe5b906000526020600020015490508060016002600087815260200190815260200160002054815481101515610f9857fe5b906000526020600020018190555060026000858152602001908152602001600020546002600083815260200190815260200160002081905550600060026000868152602001908152602001600020819055506001805480919060019003610fff9190611c51565b5050505050565b60008060058381548110151561101857fe5b906000526020600020906009020191506004826001015481548110151561103b57fe5b90600052602060002090600a020190508060050160009054906101000a900473ffffffffffffffffffffffffffffffffffffffff1673ffffffffffffffffffffffffffffffffffffffff163373ffffffffffffffffffffffffffffffffffffffff161415156110a957600080fd5b8160080160009054906101000a900460ff16806110ce575042624f1a00836007015401105b15611143578060050160009054906101000a900473ffffffffffffffffffffffffffffffffffffffff1673ffffffffffffffffffffffffffffffffffffffff166108fc83600601549081150290604051600060405180830381858888f19350505050158015611141573d6000803e3d6000fd5b505b505050565b60008060008060048581548110151561115d57fe5b90600052602060002090600a02019350600360003373ffffffffffffffffffffffffffffffffffffffff1673ffffffffffffffffffffffffffffffffffffffff1681526020019081526020016000209250600586111515156111be57600080fd5b8584600201540234101515156111d357600080fd5b600091505b8582101561126e578360080160006111fa60018a611b1490919063ffffffff16565b815260200190815260200160002060009054906101000a900460ff161561122057600080fd5b600184600801600061123c60018b611b1490919063ffffffff16565b815260200190815260200160002060006101000a81548160ff02191690831515021790555081806001019250506111d8565b6113e860016005610120604051908101604052806000600281111561128f57fe5b81526020018981526020013373ffffffffffffffffffffffffffffffffffffffff16815260200160058054905081526020018b81526020018a8152602001348152602001428152602001600015158152509080600181540180825580915050906001820390600052602060002090600902016000909192909190915060008201518160000160006101000a81548160ff0219169083600281111561132f57fe5b02179055506020820151816001015560408201518160020160006101000a81548173ffffffffffffffffffffffffffffffffffffffff021916908373ffffffffffffffffffffffffffffffffffffffff160217905550606082015181600301556080820151816004015560a0820151816005015560c0820151816006015560e082015181600701556101008201518160080160006101000a81548160ff0219169083151502179055505050611c3890919063ffffffff16565b9050826001018190806001815401808255809150509060018203906000526020600020016000909192909190915055503373ffffffffffffffffffffffffffffffffffffffff167f049dedc26e0d2f2168dd594e47e7291a3edb03336056863f905941cc7cf0c786868989856040518085815260200184815260200183815260200182815260200194505050505060405180910390a250505050505050565b606060018054806020026020016040519081016040528092919081815260200182805480156114d557602002820191906000526020600020905b8154815260200190600101908083116114c1575b5050505050905090565b6000600480549050905090565b60008061172a600160046101206040519081016040528060048054905081526020018a8a8080601f01602080910402602001604051908101604052809392919081815260200183838082843782019150505050505081526020018881526020013373ffffffffffffffffffffffffffffffffffffffff1681526020018773ffffffffffffffffffffffffffffffffffffffff1681526020013373ffffffffffffffffffffffffffffffffffffffff16815260200142815260200160008152602001600015158152509080600181540180825580915050906001820390600052602060002090600a020160009091929091909150600082015181600001556020820151816001019080519060200190611605929190611c7d565b506040820151816002015560608201518160030160006101000a81548173ffffffffffffffffffffffffffffffffffffffff021916908373ffffffffffffffffffffffffffffffffffffffff16021790555060808201518160040160006101000a81548173ffffffffffffffffffffffffffffffffffffffff021916908373ffffffffffffffffffffffffffffffffffffffff16021790555060a08201518160050160006101000a81548173ffffffffffffffffffffffffffffffffffffffff021916908373ffffffffffffffffffffffffffffffffffffffff16021790555060c0820151816006015560e082015181600701556101008201518160090160006101000a81548160ff0219169083151502179055505050611c3890919063ffffffff16565b9150600360003373ffffffffffffffffffffffffffffffffffffffff1673ffffffffffffffffffffffffffffffffffffffff1681526020019081526020016000209050806000018290806001815401808255809150509060018203906000526020600020016000909192909190915055503373ffffffffffffffffffffffffffffffffffffffff167f6adbd4d9e481eb8b0568e0ce6e96590a9236f261f0411fe9c60426c89715131183888860405180848152602001806020018281038252848482818152602001925080828437820191505094505050505060405180910390a2505050505050565b60008060058381548110151561182557fe5b90600052602060002090600902019150426203f48083600701540110801561187457506000600281111561185557fe5b8260000160009054906101000a900460ff16600281111561187257fe5b145b806118a5575060028081111561188657fe5b8260000160009054906101000a900460ff1660028111156118a357fe5b145b15156118b057600080fd5b81600601549050600082600601819055503373ffffffffffffffffffffffffffffffffffffffff166108fc829081150290604051600060405180830381858888f19350505050158015611907573d6000803e3d6000fd5b50505050565b6060600360003373ffffffffffffffffffffffffffffffffffffffff1673ffffffffffffffffffffffffffffffffffffffff16815260200190815260200160002060000180548060200260200160405190810160405280929190818152602001828054801561199b57602002820191906000526020600020905b815481526020019060010190808311611987575b5050505050905090565b6004818154811015156119b457fe5b90600052602060002090600a0201600091509050806000015490806001018054600181600116156101000203166002900480601f016020809104026020016040519081016040528092919081815260200182805460018160011615610100020316600290048015611a665780601f10611a3b57610100808354040283529160200191611a66565b820191906000526020600020905b815481529060010190602001808311611a4957829003601f168201915b5050505050908060020154908060030160009054906101000a900473ffffffffffffffffffffffffffffffffffffffff16908060040160009054906101000a900473ffffffffffffffffffffffffffffffffffffffff16908060050160009054906101000a900473ffffffffffffffffffffffffffffffffffffffff16908060060154908060070154908060090160009054906101000a900460ff16905089565b6000600580549050905090565b60008183019050828110151515611b2757fe5b80905092915050565b6000806000600484815481101515611b4457fe5b90600052602060002090600a02019250611b6c60018080549050611c3890919063ffffffff16565b9150600182815481101515611b7d57fe5b906000526020600020015490508060016002600087815260200190815260200160002054815481101515611bad57fe5b9060005260206000200181905550600260008581526020019081526020016000205460026000838152602001908152602001600020819055506000600260008681526020019081526020016000208190555060008360090160006101000a81548160ff0219169083151502179055506001805480919060019003611c319190611c51565b5050505050565b6000828211151515611c4657fe5b818303905092915050565b815481835581811115611c7857818360005260206000209182019101611c779190611cfd565b5b505050565b828054600181600116156101000203166002900490600052602060002090601f016020900481019282601f10611cbe57805160ff1916838001178555611cec565b82800160010185558215611cec579182015b82811115611ceb578251825591602001919060010190611cd0565b5b509050611cf99190611cfd565b5090565b611d1f91905b80821115611d1b576000816000905550600101611d03565b5090565b905600a165627a7a723058201def169f9522e6f3273790515b7395e9f29889f46a7bbc1ebb7257dfcb98021e0029",
  "source": "pragma solidity ^0.4.23;\nimport \"../node_modules/zeppelin-solidity/contracts/math/SafeMath.sol\";\n\n\ncontract RealEstate{\n\n    using SafeMath for uint;\n\n    // real estate 不動産\n    struct Property{\n        uint id;\n        string title;\n        uint price;\n        address ownerAddress;//不動産のオーナー\n        address ownerUportAddress;\n        address rewardAddress;//不動産の利権をもらえる人\n        uint leaseLimit; //貸付の期限。期限を超えたら権利を引き上げることができる\n        uint leasePrice;\n        mapping(uint => bool) isNotEmpty; //\n        bool onSale; //利権が売りに出ているかどうか\n    }\n\n    //不動産の予約されている日付\n    mapping(uint => uint[]) propertyIdToReservedDate;\n    //利権を売りに出している不動産\n    uint[] onSalePropertyIds;\n    mapping(uint => uint) propertyIdToSaleIndex;\n\n    enum Status{Pending, Approved, Declined}\n\n    //予約に関する情報\n    struct Request{\n        Status status;\n        uint propertyId;\n        address applicant;\n        uint requestId;\n        uint date;\n        uint stayLength;\n        uint deposit;\n        uint now;\n        bool checked;\n    }\n\n    struct User{\n        uint[] properties;\n        uint[] requests;\n    }\n\n    mapping(address => User) userInfo;\n    Property[] public properties;\n    Request[] public requests;\n\n    event ApplyRent(address indexed _from, uint _propertyId, uint _date, uint _dateLength, uint _requestId);\n    event AddProperty(address indexed _from, uint _propertyId, string _title);\n    event Confirmation(address indexed _applicant, address indexed _owner, bool _result);\n\n    //add user property\n    function addProperty(string _title, uint _price, address _uportAddress) external {\n        uint propertyId = properties.push(Property(properties.length, _title, _price, msg.sender, _uportAddress,\n        msg.sender,now,0,false)).sub(1);\n        User storage user = userInfo[msg.sender];\n        user.properties.push(propertyId);\n        emit AddProperty(msg.sender, propertyId, _title);\n    }\n\n    //first apply\n    function applyRent(uint _startDate, uint _stayLength, uint _propertyId) external payable{\n        Property storage property = properties[_propertyId];\n        User storage user = userInfo[msg.sender];\n        require(_stayLength <= 5);\n        require(msg.value >= property.price * _stayLength);\n        for(uint i=0;i<_stayLength;i++){\n            if(property.isNotEmpty[_startDate.add(1)]){\n               revert();\n            }else{\n                property.isNotEmpty[_startDate.add(1)] = true;\n            }\n        }\n        uint requestId = requests.push(Request(\n                Status.Pending,_propertyId,msg.sender,requests.length,_startDate,_stayLength,msg.value,now,false)\n        ).sub(1);\n        user.requests.push(requestId);\n        emit ApplyRent(msg.sender,_propertyId, _startDate, _stayLength,requestId);\n    }\n\n    //confirm application\n    function confirmApplication(uint _requestId, bool _isAccept) external {\n        Request storage request = requests[_requestId];\n        Property storage property = properties[request.propertyId];\n        require(property.ownerAddress == msg.sender && request.status == Status.Pending);\n        if(_isAccept){\n            request.status = Status.Approved;\n            for(uint i=0;i<request.stayLength ;i++){\n                propertyIdToReservedDate[request.propertyId].push(request.date.add(i));\n            }\n        }else{\n            request.status = Status.Declined;\n            for(uint j=0;j<request.stayLength;j++){\n                property.isNotEmpty[request.date.add(j)] = false;\n            }\n\n        }\n        emit Confirmation(request.applicant,msg.sender,_isAccept);\n    }\n\n    function refunds(uint _requestId) external{\n        Request storage request = requests[_requestId];\n        require((request.now + 3 days < now && request.status == Status.Pending) || request.status == Status.Declined);\n        uint deposit = request.deposit;\n        request.deposit = 0;\n        msg.sender.transfer(deposit);\n    }\n\n    function checkRequest(uint _requestId) external{\n        Request storage request = requests[_requestId];\n        require(msg.sender == request.applicant && request.status == Status.Approved);\n        request.checked=true;\n    }\n\n    //利権を持っているユーザーが資金を引き出す\n    function withdrawCharge(uint _requestId) external{\n        Request storage request = requests[_requestId];\n        Property storage property = properties[request.propertyId];\n        require(msg.sender == property.rewardAddress);\n        if(request.checked || (request.now + 60 days) < now){\n            property.rewardAddress.transfer(request.deposit);\n        }\n    }\n\n    function userProperties() external view returns(uint[]){\n        return userInfo[msg.sender].properties;\n    }\n\n    function userRequest() external view returns(uint[]){\n        return userInfo[msg.sender].requests;\n    }\n\n    function propertyLength() external view returns(uint) {\n        return properties.length;\n    }\n\n    function requestsLength() external view returns(uint){\n        return requests.length;\n    }\n    //利権を売りに出す\n    function propertyOnSale(uint _propertyId, uint _expireDate, uint _price) external {\n        require(_expireDate >= 7 days);\n        Property storage property = properties[_propertyId];\n        //利権もオーナーも自分である場合に売りに出すことができる\n        require(property.ownerAddress == msg.sender && property.ownerAddress == property.rewardAddress);\n        property.onSale = true;\n        property.leasePrice = _price;\n        property.leaseLimit = _expireDate;\n        propertyIdToSaleIndex[_propertyId] = onSalePropertyIds.push(_propertyId).sub(1);\n    }\n\n    //利権をマーケットから撤退する\n    function propertyNotOnSale(uint _propertyId) external{\n        Property storage property = properties[_propertyId];\n        require(msg.sender == property.ownerAddress);\n        uint lastIndex = onSalePropertyIds.length.sub(1);\n        uint lastProperty = onSalePropertyIds[lastIndex];\n        onSalePropertyIds[propertyIdToSaleIndex[_propertyId]] = lastProperty;\n        propertyIdToSaleIndex[lastProperty] = propertyIdToSaleIndex[_propertyId];\n        propertyIdToSaleIndex[_propertyId] = 0;\n        onSalePropertyIds.length--;\n    }\n\n    function removeOnSale(uint _propertyId) internal{\n        Property storage property = properties[_propertyId];\n        uint lastIndex = onSalePropertyIds.length.sub(1);\n        uint lastProperty = onSalePropertyIds[lastIndex];\n        onSalePropertyIds[propertyIdToSaleIndex[_propertyId]] = lastProperty;\n        propertyIdToSaleIndex[lastProperty] = propertyIdToSaleIndex[_propertyId];\n        propertyIdToSaleIndex[_propertyId] = 0;\n        property.onSale = false;\n        onSalePropertyIds.length--;\n    }\n\n    function getOnSalePropertyLength() external view returns(uint){\n        return onSalePropertyIds.length;\n    }\n\n    function buyRewardAddress(uint _propertyId) external payable{\n        Property storage property = properties[_propertyId];\n        require(property.leasePrice <= msg.value && property.onSale);\n        property.leaseLimit = now + property.leaseLimit;\n        property.rewardAddress = msg.sender;\n        removeOnSale(_propertyId);\n    }\n\n    function getOnSalePropertyIds() external view returns(uint[]) {\n        return onSalePropertyIds;\n    }\n\n    function resumeRewardAddress(uint _propertyId) external {\n        Property storage property = properties[_propertyId];\n        require(property.ownerAddress == msg.sender && property.leaseLimit < now);\n        property.rewardAddress = msg.sender;\n    }\n}",
  "sourcePath": "/Users/yamamotojirou/Desktop/truffle-uport/contracts/RealEstate.sol",
  "compiler": {
    "name": "solc",
    "version": "0.4.24+commit.e67f0147.Emscripten.clang"
  },
  "schemaVersion": "2.0.1",
  "updatedAt": "2018-07-22T06:20:28.449Z"
}